:020000020000FC
:100000000FEF0DBF08E00EBFC0F9A4B0999282F8BF
:1000100080908883C6A1868EF0E0E8E000E000933F
:10002000C1000FEF0AB90FEF0BB938983998409A11
:10003000419A22270E9468000FE104B92C985527A5
:10004000662702E004BD05E005BD0BE907BD0027FA
:1000500006BDA99A00C00E944C000E945A0014D00C
:1000600063956A30C1F7662753955F70521729F47C
:10007000552700E145B1402745B945B1407F052FDF
:100080000F70402B45B9E7CF7AE005B301FFFDCFF4
:10009000A99A7A95D1F7089530990895A1E00E9420
:1000A0006E003099089523952F700E946800309B50
:1000B000FECF089531990895A1E00E946E00319914
:1000C00008952A952F700E946800319BFECF0895F5
:1000D000F0E0E8E0E20F44914BB90895BB27B395F7
:0A00E000B030E9F7AA95D9F70895AA
:00000001FF
